:020000041000EA
:10000000002008205D0100101B0100101D010010E0
:100010001101001011010010110100101101001058
:100020001901001019010010190100101F01001022
:10003000110100101901001021010010230100100E
:100040001101001011010010110100101101001028
:100050001101001011010010110100101101001018
:100060001101001011010010110100101101001008
:1000700011010010110100101101001011010010F8
:1000800011010010110100101101001011010010E8
:1000900011010010110100101101001011010010D8
:1000A00011010010110100101101001011010010C8
:1000B00011010010110100101101001011010010B8
:1000C00011010010110100101101001011010010A8
:1000D0001101001011010010110100101101001098
:1000E0001101001011010010110100101101001088
:1000F0001101001011010010110100101101001078
:100100001101001011010010110100101101001067
:10011000EFF30580103800BE00BE00BE00BE00BE7A
:1001200000BE00BEF2EB8871A88C0010C88C0010D5
:10013000A001001090A31AE7D3DEFFFF42012110B7
:10014000FF010000A0A00000793512AB4FF00000C5
:100150001E49086006C881F3088810474FF05040D8
:10016000006810B14FF00000F2E70DA40ECC00299A
:1001700002D000F012F8F9E71549164A002000E015
:1001800001C19142FCD11449884714498847144958
:10019000884700BEFDE701C901C29A42FBD3704700
:1001A000C88C00101001002020160020D8A10010DB
:1001B0000000082000000820D8A10010001008202E
:1001C00000100820000000007047000008ED00E06B
:1001D000201600202C2602201D5900101D0300109F
:1001E00015590010F8B500BF0348044B834202D0F4
:1001F000034B03B11847704720160020201600203B
:1002000000000000064B0749C91A891048BF013198
:10021000491003D0044B0BB101481847704700BF89
:1002200020160020201600200000000010B5064C0B
:10023000237843B9FFF7D8FF044B13B1044800E01B
:1002400000BF0123237010BDA8170020000000008C
:10025000AC87001008B5044B1BB10449044800E00A
:1002600000BFBDE80840CDE700000000AC1700204B
:10027000AC870010D0B52DED048B01238EB0009318
:1002800000210F231F4A09A800F062F89FED1E9A73
:10029000DFED1E8A1E4C23E0DDED087AB0EE688AA1
:1002A00017EE900AA7EE898A08F002FA02460B467A
:1002B0000798CDE9042308F0FBF906460F4618EE2F
:1002C000100ACDE9026708F0F3F9DDE90423CDE96E
:1002D0000001104805F012FD4FF4FA6002F066FFCD
:1002E00009A800F067F808AA07A909A800F04CF9C6
:1002F0000028D1D0012814BF2046074805F07CFC17
:10030000EAE700BF000020506666E63F00000042BA
:100310000C880010B0870010D487001000B583B09F
:1003200005F024FC074805F067FC0122002306497C
:10033000CDE9002305484FF4007202F04BFD02F0B6
:10034000F3FDFEE71C8800103088001075020010D5
:100350002DE9F04100270546026047608760017182
:10036000C76007611249104614461E469DF8188062
:1003700001F0DCFA01216871204601F0BDFA034664
:100380000120AB7101F0A6FA04F12F4404F56004DA
:10039000240DA11DE871C9B230462E7200F0EAFAB0
:1003A0003A4641463046BDE8F04100F0FFBA00BF92
:1003B0003C8800102DE9F04F04464FF4F8314FF41B
:1003C000803000264FF0050C4FF4402E4FF480395A
:1003D0002568A77905F12F4AE3790AF5600A654A8D
:1003E0004FEA1A5B07F1040A02EA43320AEBCB0A2E
:1003F00042EA4A428BB007F1080A9B0142F400022C
:1004000003F1A043CDE9020104F1090805EB8A01DB
:1004100042F04102C4F8096066731960C3F80480B1
:10042000C3F808C0DA6094F805800596CDF810E0AE
:100430000DF1180A02AE96E80F008AE80F0008F1E5
:1004400010024FEAC81343EA0233CDE9073ECDF864
:1004500018909AE80F0094F8089094F804A086E8A1
:100460000F00604600F0ACF907EE900A9FED426A7B
:10047000B8EE677ADFED416AC7EE067A77EEA67AC4
:10048000BCEEE77A17EE103A9AB2002A70D007EE67
:10049000102AB8EEC77ADFED3A6A77EEC77A67EED0
:1004A000A67AFCEEE77ACDED017A9DF80400000211
:1004B000DDE904134FEA491E23F0E05323F4787377
:1004C0000EF4787E43EA0E0E039B21F0FA714FEA98
:1004D000096940EA024023F0F85C21F4803109F018
:1004E000F859334642464EF0806E4CEA090941F411
:1004F0000106029039462846AAF1020ACDE9039680
:10050000CDF814E001F098FA0123BAF1010F44F29A
:10051000506298BF4FF47A7207F110018B406968FE
:100520001942FCD105EB870002616A681342FCD1D5
:10053000192348F2A0014EF2810C4AF2470601222B
:10054000036107EB470305EBC303C3F8D8C0C3F847
:10055000D810C3F8D860C3F8D8102B6802FA07F790
:100560001F43084B2F609B6A23610BB0BDE8F08FDF
:1005700010469DE7FDFF01FC002474490000003B8C
:100580000000804300000B402DE9F04F45F6C053BA
:1005900041F6583590F804E090F80780AEF1020C6F
:1005A0005FFA8CFC4FEA8819BCF1010F88BF1D4629
:1005B000504F09F1A04604E0BB6A04691B1BAB4223
:1005C00002D233695B01F7D401274EF2800A056835
:1005D00083792E6807FA03FB03EB430305EBC3049F
:1005E00026EA0B062E6009F1A043C4F8D8A01C69C6
:1005F0004FF0A04566013CD4477A847AC67A057BE1
:100600003B193344407B2B44DBB298422ED189B155
:10061000BEF1010F37D9BCF1010F09D804EB072453
:1006200007EE904A9FED347AF8EEE77A67EE877A24
:10063000C1ED007A002A57D0BEF1010F41D031D967
:10064000BCF1010F0DD8330203F4FE432B4406EE38
:10065000903ADFED297AF8EEE66A330666EEA76A8D
:100660003FD4C2ED006A0020BDE8F08F0220BDE853
:10067000F08F07FA08F7C5F86474DA685401FCD4FF
:100680000120BDE8F08F07EE904AB8EEE77A07EE5A
:10069000907A9FED196AF8EEE77AE7EE067AC1EDF7
:1006A000007AC7E7280622D407EE905AB8EEE77A18
:1006B00007EE906AF8EEE76ADFED0F7AE7EE276A59
:1006C000CFE705F07F0307EE106A07EE903AF8EEE9
:1006D000C76AF8EEE77A9FED087A2906E7EE876A9F
:1006E000BFD5F1EE666ABCE71046BDE8F08FDFEDDE
:1006F000036AB6E700000B40CDCCCC3D0000000003
:10070000F0B500EB4004A40004F1804404F580340B
:100710006568061FB5F5803F38BF4FF48035F6B2E7
:1007200038BF6560012E964628D94FF4006C234FE0
:1007300004F54055C5F800C057F82050ADB92568FC
:1007400004F5805C85EA4E1202F0E002012ECCF83E
:10075000002026D94FF400614FF4803247F8203052
:1007600004F5005319606260F0BD7A69B2FBF5F5DB
:10077000013505EB4505033DFDD2E0E70129D4D164
:10078000032604F540552E60A568EA07FCD52568C8
:1007900004F5805C85EA4E1202F0E002074FCCF8C7
:1007A0000020012522688D40514001F00301CCF862
:1007B0000010A2682A42FCD0CCE700BFBC1C00207D
:1007C000014B53F820007047BC1C00200FB400B54B
:1007D00083B0049C074805F00FFA3CB105A92046F8
:1007E000019105F07DF8044805F006FA012005F0B6
:1007F0008FF800BF68880010D0870010EFF31080DA
:1008000072B6064BD3E8CF1F01220029FAD1C3E804
:10081000412F0029F6D1BFF35F8F704717250220C3
:100820000023034AC2E88F3F80F31088704700BF5F
:1008300017250220F8B5EFF3108C72B60F4ED6E8EC
:10084000CF5F0124002DFAD1C6E8454F002DF6D127
:10085000BFF35F8F0124CF08C55D01F0070304FAE1
:1008600003F315EA030406D12B43C355C6E88F4FA3
:100870008CF31088F8BD1046FFF7A8FF172502205B
:10088000F8B5EFF3108C72B6204FD7E8CF5F012494
:10089000002DFAD1C7E8454F002DF6D1BFF35F8F89
:1008A0009A4222D80126D508455D02F0070406FACF
:1008B00004F4254200EBD20E0AD122E0D408055DF3
:1008C00002F0070406FA04F4254200EBD20E18D019
:1008D00001329342F2D24FF0FF300023C7E88F3F3E
:1008E0008CF31088984207DBF8BD0023C7E88F3FE0
:1008F0008CF310884FF0FF300029F5D00698FFF7F1
:1009000065FF2C4310468EF80040E6E717250220CD
:10091000044A1078431CDBB2172B88BF10231370D6
:10092000704700BF6815002000B5064B83B0014634
:10093000009318221F230448FFF7A2FF03B05DF8BD
:1009400004FB00BF78880010B01C0020024A136826
:1009500043F000531360704708E000E00021044BAF
:1009600003F12002C3E88F1F01339342FAD170478D
:100970000C25022030B44FF480750B4BC20053F8A5
:10098000204003EB800084F0400402F1804303F533
:10099000203304F0C00200F5805400F5405022607E
:1009A0005960056030BC704704800340002915BFC2
:1009B000082300230C210421002A08BF1946064BF6
:1009C00053F8202003EB80004A4002F00C0200F5AF
:1009D00080531A60704700BF048003404FF080339B
:1009E00030B40A480A490B4A0B4D0C4C03600B60AB
:1009F00013602B60236043614B6153616B616361E2
:100A000083628B62936262B630BC704700E400E0A0
:100A100004E400E008E400E00CE400E010E400E09E
:100A2000012300F01F029340400941B1800000F112
:100A3000604000F56140C0F8803103607047024AB1
:100A4000203042F82030704700E100E00123064AE0
:100A5000410952F8212000F01F0003FA00F0104273
:100A600014BF18460020704700E100E0012243094E
:100A7000044900F01F00403302FA00F041F823005F
:100A8000704700BF00E100E0054B10309A68054B4D
:100A900052F82000C01A2F288CBF00200120704778
:100AA00000ED00E06C150020F8B50D46EFF310875F
:100AB00072B6124ED6E8CF2F0123002AFAD1C6E82B
:100AC000423F002AF6D1BFF35F8F0D4B00F11004B7
:100AD0009B680C4A53F82430934203D0994201D0CA
:100AE00003F070F9064B9B6843F82450BFF35F8F07
:100AF0000023C6E88F3F87F31088F8BD1525022034
:100B000000ED00E0110100102DE9F04F83B0074621
:100B100015460191EFF3108A72B6DFF8E091D9E83B
:100B2000CF2F0123002AFAD1C9E8423F002AF6D18B
:100B3000BFF35F8F6B4E96F90020002AC0F2AA80A7
:100B4000694C02EB420304EB83039979674B3170E4
:100B50009B68103753F8270002EB4206031B2F2B2C
:100B600004EB86084FEA86062FD9614B984240F085
:100B7000AF80604BB21C2244043B9B1AC3F34A0370
:100B80006FEAC3434FF421406FEAD3434BF6015160
:100B9000FF22A053A8F80230019B48F0010088F81A
:100BA0000750C8F80830A8F8041088F806204F4B02
:100BB0009B6843F82700BFF35F8F0023C9E88F3F8E
:100BC0008AF3108803B0BDE8F08F20F00101CB79E3
:100BD000AB4237D84FF4214B4AF6AA20454BB21C02
:100BE000A3F1040CA318ACEB0303321DDFF810C112
:100BF00004EB020EC3F34A030A1F43EA0C03A2EB01
:100C00000E0224F806B0C2F34A02A8F802303A4EA7
:100C1000019B42EA0C02C8F80830A8F804200346F9
:100C20000A46121B524153431B0D88F8075088F89F
:100C3000063048F001000E60B9E79CF807C0AC45EB
:100C40002DD9714691F9063003EB430C04EB8C0C63
:100C5000002BE646F1DA4BF6015C01F1040BA8F13A
:100C6000040EAEEB0B0ECEF34A0E6FEACE4E6FEAD9
:100C7000DE4EDFF884B08A71A1F804E044F806B0D3
:100C800088F80630019BA8F804C088F80750C8F817
:100C900008308CE703F096F896F9002050E7B1F899
:100CA00004C001F1040B5FEA4C5C14D46FF0070E32
:100CB0004FEA6C5C0CF1020CAEEB060E0BEB4C0C2D
:100CC000AEEB040EF444CCF34A0C4CF4604CC6E793
:100CD00003F078F84DE70CF5FF1C0CF5FF5C0CF108
:100CE0001F0CE3E7052502206C15002000ED00E055
:100CF000110100109C150020014880471525022095
:100D000000E0FFFF10B4FF2420F0030303F1604371
:100D100003F5644300F003001A68C000844022EA2F
:100D20000402814011435DF8044B1960704700BF15
:100D3000F0B5EFF30585EDB2EFF3108772B62649F3
:100D4000D1E8CF2F0123002AFAD1C1E8423F002A7F
:100D5000F6D1BFF35F8F214E40F0010CB2684AF626
:100D6000AA2352F825E004461D4AA41A64416343AD
:100D70001B0DE6455BB21BD092F906409C421CD08D
:100D800092F912409C4223D092F91E409C4221D0FD
:100D900092F92A409C4208BF03240FD0114A002434
:100DA000157813708571C1E88F4F87F31088F0BDF7
:100DB000B2680D4C42F82540F0E70024FF264BF6C0
:100DC000015504EB440402EB840296719580E5E73B
:100DD0000124F3E70224F1E71525022000ED00E0ED
:100DE0006C150020052502201101001000B5084BEC
:100DF00083B001460093002205230648FFF740FD1B
:100E00000028A8BFC0F1330003B05DF804FB00BFA9
:100E10009488001009250220014B19440160704795
:100E20000C2502202DE9F041154D164EB54224D275
:100E30002C4623684FF0FF374FF000088BB1FFF7C7
:100E400067FD01462846FFF7E7FF676084F80880E2
:100E5000BFF35F8F0C34B4420FD223682546002BBA
:100E6000EDD1FFF755FD01462846FFF7D5FF676036
:100E7000BFF35F8F0834B442EFD3BDE8F08100BF09
:100E8000101600202016002010B50446FFF740FD84
:100E900001462046FFF7C0FF4FF0FF336360BFF30A
:100EA0005F8F10BD10B504460120FFF73DFD034BD9
:100EB00018442060BFF35F8F10BD00BF0C250220D7
:100EC000024B19440160BFF35F8F70470C2502206D
:100ED0002DE9F04F91B0EFF30583DBB2103B9A0898
:100EE0000EBFB749B74901220F46012103F003069F
:100EF000B54B06EB820253F822B007F5415001FAD8
:100F000006F3BA46CDE900450796069343603AE0FA
:100F1000BBF80430190440F1BD809BF80630002B6B
:100F200040F01581BBF90820002AC0F24481DBF8AB
:100F3000143002EB420203EBC202D2E902677B1CCF
:100F400008BFB6F1FF3F0FD0079BDAF828000AEB85
:100F500083021369311A1B1A994204D3DAF820303C
:100F600006990B4200D11661504600F099FB331AE6
:100F7000029367EB01030393DDE90234012B74F163
:100F8000000380F21881BBF90860069B002ECAF8A6
:100F90003C30BDDBDBF8147006EB4603089350468B
:100FA00007EBC303D3E902891C46099300F078FBE1
:100FB000B0EB080061EB090104900591DDE9041232
:100FC000002972F10001A3DBB8F1000F79F10001F3
:100FD000C0F2FE807D4B22699A42099B00F0268177
:100FE0005988BBF9080089B241EA00405969904725
:100FF00002460B4652EA030100F0EA80002A73F130
:10100000000180F20881B8EB020069EB0301089B44
:1010100037F93380099BB8F1000F9860D960FFF66B
:1010200077AFDBF8143008EB480C03EBCC0CDCE9B1
:101030000242041B61EB02020B920A94DDE90A45AD
:10104000002C75F10002FFF663AFBE46ABF80880D6
:10105000DDE90C7809E09468071BD46861EB0408AB
:10106000002F78F1000409DB9446BCF9009009EBED
:101070004902B9F1000F03EBC202ECDA089BCDE99B
:101080000C782EF83390ACF80060BBF804301904EB
:101090003FF543AFDBF81030EFF3108272B6D3E8C0
:1010A000CF0F01210028FAD1C3E8401F0028F6D154
:1010B000BFF35F8F4FF6FF71BBF80480DBF8103091
:1010C000ABF804100FFA88F80021C3E88F1F82F3F1
:1010D00010888845FFF621AFDDE900450BF10801D6
:1010E00050468A46DBF81460BBF9083008EB480923
:1010F00006EBC902002BD446D2E9021E16DB5F467E
:10110000009004E036F93B309446002B0CDB03EBF7
:10111000430B06EBCB0290680C1AD0686EEB00050F
:10112000002C75F10000EDDABB460098ACF80080A9
:1011300036F9398026F83930B8F1000FD4DA9BF847
:1011400006308246CDE90045002B3FF4EBAE00238C
:101150008BF80630BBF908300BF1080E5A1C2AD068
:10116000DDE900451A46DBF8146002E08646591CAA
:101170001CD003EB430106EBC10047889C463F04AB
:1011800036F93130F2D54FF0FF374FF0FF38944544
:10119000C0E90278EBD0AEF80030BBF80800624638
:1011A00026F83100591CABF808C0E2D1002ACDE97D
:1011B0000045BFF6BCAE40BF11B0BDE8F08F00BF28
:1011C00000000B4000800B4030210020D10E0010A9
:1011D000089CDBF8103037F83420ABF80820EFF328
:1011E000108272B6D3E8CF0F01210028FAD1C3E8EC
:1011F000401F0028F6D1BFF35F8FBBF80230DBF849
:10120000101027F834300023ABF80260C1E88F3F9C
:1012100082F310887CE65046CDE90E2300F040FAB8
:10122000DDE90E23801843EB0101F0E65969084619
:101230000A690E9190470028CAD00E99D1E900237F
:10124000D8E600BF0A4810B50368EFF3108172B604
:10125000D3E8CF4F0122002CFAD1C3E8442F002C51
:10126000F6D1BFF35F8F00F0A5FE0020002110BD76
:10127000F42300202DE9F84F384C25692DB1BDE845
:10128000F84F0A213648FFF7C7BD0321DFF8E88091
:101290000E46404600F0F2F9C4F80C80FFF738FB28
:1012A0004FF0504B4FF6FF724FF00F0A2D4B267048
:1012B00018442D4BDBF800B0A36063692061A28065
:1012C00084F801B0A4F802A01A804FF00402A3F839
:1012D00078204FF00502A3F890204FF00602A3F803
:1012E000A8204FF00702A3F8C0204FF00902A3F88E
:1012F000F0204FF00A02A3F808214FF00B02A3F8E8
:1013000020214FF00C024FF0020E08274FF00D0C79
:101310004FF001090E21A3F83821144A1D83A3F8C8
:101320006060A3F848E0A3F86811A3F83090A3F830
:10133000D870A3F850C13046C8F820700C49D4606A
:10134000FFF7B2FB49463046FFF76AFB094B0A211B
:101350001F600348BDE8F84FFFF75EBDB4150020DD
:10136000F42300200C250220FFFF10003021002074
:10137000D10E001040200B4000000B400048704789
:10138000B41500202DE9F8439DF828700446154651
:101390001E4657B900F08CF9B5EB000866EB010961
:1013A000B8F1000F79F1000356DB2369EFF31080E9
:1013B00072B6D3E8CF1F01220029FAD1C3E8412F2A
:1013C0000029F6D1BFF35F8FB4F90220676902EB01
:1013D0004201002A4FEAC10E07EBC10102DB37F8D8
:1013E0000E3063804FF000082369C3E88F8F80F3CD
:1013F0001088424533DB4888089B0130C0F30E005B
:10140000012838BF01200B61099B48804B61C1E96D
:10141000025640EA02402369EFF3108172B6D3E826
:10142000CF6F0125002EFAD1C3E8465F002EF6D11A
:10143000BFF35F8FA588236927F80E50A280C3E809
:101440008F8F81F310880122E368217803F501531F
:101450008A405A60BDE8F8833846BDE8F8834FF00B
:10146000FF30F7E701462DE9F04100699846EFF3B8
:10147000108E72B6D0E8CF5F0124002DFAD1C0E8FB
:10148000454F002DF6D1BFF35F8FB1F902504E6981
:1014900005EB4504E700002DA8BFF05B4FF0000C02
:1014A000A8BF488006EBC4040869C0E88FCF8EF35C
:1014B0001088654531DB6088069B0130C0F30E0063
:1014C000012838BF01202361079B60806361C4E964
:1014D000022840EA05400B69EFF3108272B6D3E8A8
:1014E000CFEF0124BEF1000FF9D1C3E84E4FBEF19A
:1014F000000FF4D1BFF35F8F8C880B69F4538D809C
:10150000C3E88FCF82F310880122CB68097803F5F6
:1015100001538A405A60BDE8F0814FF0FF30FAE78E
:101520004289B2EB214F37DD42690B1403EB4303D1
:1015300002EBC30370B40269EFF3108472B6D2E811
:10154000CF6F0125002EFAD1C2E8465F002EF6D1FA
:10155000BFF35F8F5A8889B292B28A4207D003697B
:101560000020C3E88F0F84F3108870BC704742F4EA
:1015700000425A800123002201698371C1E88F2F44
:1015800084F31088C268017802F5015203FA01F170
:10159000184670BC51607047002070474078704713
:1015A0002DE9F04F07460E4685B0EFF30584E4B20F
:1015B0003CB12F4B586A88421FD2002005B0BDE8CD
:1015C000F08F2C4DD5F80C8095F80090404600F037
:1015D00067F809F1040358F823200023B7EB000A49
:1015E000A2EB000266EB010B92457BEB030311DBE0
:1015F00020BF1F4B586A8642DFD89B6ABB4203D389
:10160000012005B0BDE8F08F801B18BF012005B098
:10161000BDE8F08F00F04CF83B1A029366EB010333
:101620000393DDE90223002A73F1000313DB124B5D
:10163000284600933A4633460194FFF713FF011EF4
:1016400009DD0B4B5A6A96420FD89B6ABB420AD3FC
:101650000848FFF765FF064B586A8642ADD89B6A7B
:10166000BB42CDD2D0E79642F2D120BFF0E700BF17
:1016700000000B40B41500204512001010B4054BBB
:10168000054C064AA04214BF1846581C5DF8044B8E
:10169000FFF7D0B8B41C002000800B40B0880010C9
:1016A000416A0B46826A416A8B42FAD11046704702
:1016B000044A1346516A0A46986A596A9142FAD115
:1016C000704700BF00000B4070B41E4D039CB5FB7B
:1016D000F1F5B2FBF5F205682403002D44EA03435B
:1016E00020DB194D194EA8420CBF4FF400454FF4B2
:1016F0008045174C3560A6F5FF56183E25603468C6
:1017000035EA0404FBD1212500F54054043401607E
:10171000826025600268002AFCDA0822C360226029
:1017200070BC7047046804F03F048C42D9D18468CF
:10173000C4F30B049442D4D1C46804F4EE249C4254
:10174000CFD1EDE7001BB70000800540002002402C
:101750000030024030B44FF080441D4B1C60E0B1BB
:101760001C4C40F001001C4DA3F540534440DD618A
:101770001C62596298624FF080454FF0E061144B53
:101780001648174C1D60046019604AB930BC4FF010
:101790000042A3F580531A607047124BD861EAE704
:1017A0004FF47A7303FB02F2B2F1807F09D20E4B41
:1017B0001A604FF0804130BC0A480C4B42601960FF
:1017C00070476FF07F4308491A460B60F1E700BF8E
:1017D00000B00D402D3FF84FD3C007B008A0014026
:1017E000F3FFFF0100800D402021002000A00D40EC
:1017F000012300EB4000800000F1804000F58410E0
:1018000041600360704700BF10B5162482B00B46DC
:101810002488002141E800F1CDE900034B0254BFC8
:101820001021042144F25220A047DDE900230446A0
:101830000A214FF48170A44602B0BDE81040604711
:1018400016231B88002242E800F2520201D4102124
:1018500018470421184700BF08B50B46011E02DBDC
:1018600022B143F030031846FFF7CEFF43F02003C8
:10187000F9E700BF034A1368002BFCD0BFF35F8F6A
:10188000704700BF28080E400021044B044ABFF3F4
:101890005F8F43F8041B9342F9D170470C080E4048
:1018A0002C080E40084B30B44FF42A654FF48D7469
:1018B0001A46064906481D60DC6008605368002B24
:1018C000FCDA30BC704700BF0080044000A0044038
:1018D00000B0FA0000B5064B83B001460093002229
:1018E0000F230448FEF7CCFF03B05DF804FB00BFF4
:1018F000D48800100025022030B500F12F4000F5FB
:101900006000084D000D840083B02246E31C009562
:101910000548FEF7B5FF8442CCBF4FF0FF30001BF7
:1019200003B030BDF4880010B81C00202DE9F84F3A
:101930000E460746FEF762FF0123317996F90590BE
:1019400007F12F42DFF8E8C002F56002150D8B4069
:10195000B9F1000F5CF8258003F1FF3342DBC1F1E0
:10196000200291454C4636DC03FA09F212EA080FD0
:1019700031D1CE46D7F8682196F807A0002A4CD17D
:101980001AF0040F4CD1B9F1000F01DBCE4547D15D
:1019900003FA0EF318EA030F38D199B1F14636680D
:1019A000DFF890B006EB410136F8022B09F1120A7C
:1019B00012EA0B0F08BF72448E4209F1010947F881
:1019C0002A20F1D148EA03034CF82530FEF728FF1E
:1019D0002046BDE8F88F4FF0FF34FEF721FF204688
:1019E000BDE8F88FD1F1200410D403FA04F212EA12
:1019F000080FA64604D1BDE712EA080FA646B9D0E3
:101A0000013CB4F1FF3F03FA04F2F5D16FF0080492
:101A1000FEF706FF2046BDE8F88F1AF0010FB2D09E
:101A20006FF00A04FEF7FCFE2046BDE8F88F00BF09
:101A3000D019002000E0FFFFF0B4012504688D40BC
:101A400024EA050404609BB31D6801EB410400EB2C
:101A5000C4049E68C4F8C8505D68DB68C4F8D060F0
:101A6000C4F8CC504D00C4F8DC304FF0004C4FF0BF
:101A7000013701266C1800EBC40303F58653C3F845
:101A800010C08F40C3F810C00B1D083100EBC40418
:101A900006FA03F306FA01F102F01F0200F5005600
:101AA0008760336000203160C4F8D820F0BC7047F4
:101AB0004FF4F8354FF480374FF4402601EB4104E2
:101AC00000EBC404C4F8C870C4F8D060C4F8CC50AB
:101AD0004D00C4F8DC30C8E7F8B5431E0A3311D80E
:101AE00000F1080410F0070005D0C0F10800C3435E
:101AF000A34207D3044401F087FA344923460D6812
:101B00002DBB0AE001F080FA30490B6823B10025B3
:101B100001F082FA2846F8BD1C462D4D6A074DD1CA
:101B20002A46164605F500350020083D25F0070534
:101B30000D602849AA1AC1E90060DFF8A0C0C5E914
:101B40000000254FC6E90052CCF800203A60002B77
:101B5000DDDD214F3E68A642D9D31E48036803E06D
:101B60001A6822B1184613465968A142F8D3AB420D
:101B7000CDD01D46A1EB040C55F8082BBCF1100F7D
:101B8000026007D9214603EB040ECEF804C01A51B7
:101B9000C0F800E00024114A761A106841F00041B4
:101BA00086420F4838BF16600268596001321C60D7
:101BB0003E60026001F030FA2846F8BDEA1D22F0CE
:101BC0000702164605F50035AEE700BF602100208C
:101BD00000240020C024022084240220902402201B
:101BE0009C24022030B150F8043C002B02DA50F85B
:101BF000082C02B1704730B523F0004383B040F8A1
:101C0000043C194C019001F0FFF90198226850F84A
:101C1000041C164B0A44226008381A461B68984276
:101C2000FBD854681519A84219D04418A3420CD007
:101C30000360824218BF10600D4A136801331360BD
:101C400003B0BDE8304001F0E7B90A4C2468A34274
:101C5000EED0D3E900342144C0E90031E9E7214462
:101C600010465160E1E700BF84240220C024022016
:101C7000A024022060210020002300B583B001933E
:101C800000F0BCFA019B002BFCD003B05DF804FB14
:101C900010B500F0B3FA044601F0E6FA18B14FF0BF
:101CA0008052034B1A602046BDE8104000F0B2BAE3
:101CB00004ED00E01C4B93F90030002B08DB4FF0E3
:101CC00050410122D1F8880102FA03F3184200D1F1
:101CD0007047002230B5154883B0C1F88C310368D5
:101CE0000192EFF3108472B6D3E8CF5F0121002D8B
:101CF000FAD1C3E8451F002DF6D1BFF35F8F0C4B1F
:101D0000006819681A60C0E88F2F84F31088094BA7
:101D100001AA186800F09AFB019B1BB14FF080529A
:101D2000054B1A6003B030BDCC15002050210020B7
:101D3000182402208024022004ED00E00421002267
:101D400010B5084B084C052021601A60FEF738FDDD
:101D50000722064B0649A3FB00308309013B0B60B9
:101D6000226010BD18E000E010E000E0D34D6210EA
:101D700014E000E04FF08052034B1A60BFF34F8F26
:101D8000BFF36F8F704700BF04ED00E008B500F0AF
:101D900035FA044A136801331360BFF34F8FBFF362
:101DA0006F8F08BDD0150020044B1A68013A1A60E5
:101DB000186800B1704700F02DBA00BFD0150020A0
:101DC000836913F8023C662B00D070470549064A28
:101DD0000B6843F470030B60136843F040431360D7
:101DE00000F0EEB988ED00E034EF00E02DE9F04FAF
:101DF0004FF0123A40F8203C1A4B40F8082C40E9CA
:101E000004A34FF0113C4FF009334FF0103240F86B
:101E100024CC40E90B324FF0083C4FF00733044626
:101E200040E90D3C4FF0807B4FF003394FF0023812
:101E30004FF0013E4FF005374FF004366FF00205CA
:101E40004FF0063340E9068940E90F7340E9115627
:101E500040F804BC40F81CEC44F8481D2046BDE89E
:101E6000F08F00BF791C00104FF07F42002170B549
:101E7000374B84B002911A601B681B0E8DF8073037
:101E80009DF807309DF807301A060CD5029B0133E8
:101E900002939DF807305B00DBB28DF807309DF8A8
:101EA00007301B06F2D4029B082B4FD0029BC3F1D4
:101EB00007031B0203F4E06300244FF0504525495B
:101EC000254A0B601368224E43F47F0313601368A6
:101ED000224943F07F4313600E20346001F0CEFEB0
:101EE0001F490F2001F0CAFE1E490B2001F0C6FE5B
:101EF000FFF724FF1C4A1D4B14602A6801210320B0
:101F00001A7001F0E1FE0126194A40B206FA00F308
:101F10001070FF21C5F88C311A20C5F88431FEF706
:101F2000F1FE1A201349FEF7BFFD31461A20FEF7D5
:101F300077FD00F05BF901F0A7F9039400F05EF97A
:101F4000039B002BFCD0002004B070BD0023B3E73E
:101F50001CED00E00024022020ED00E0252200100E
:101F6000911C0010A5220010D0150020CD150020D6
:101F7000CC150020B51C0010EFF305830F2B84BF98
:101F8000014A9B5C704700BFF0E300E04FF0504215
:101F9000074B10681B78834200D07047EFF305832E
:101FA000DBB213B100EB4300704701F005BC00BF8A
:101FB000CD15002070B54FF050440126314B02681A
:101FC0002468D21A304B82B0A3FB02532F4D1B0959
:101FD0002D7803EB4303A2EBC303A54206FA03F3F8
:101FE0002CD040BF2A4D04682A68944241D0D2E8E0
:101FF000CF6F0124002EFAD1C2E8464F002EF6D151
:10200000BFF35F8F234C2E682268002513432360A3
:10201000C6E88F5F0468204B93F90030002B06DB85
:1020200001224FF0504002FA03F3C0F88031002340
:10203000C4E88F3F81F3108802B070BD40BF002418
:102040000268C2E88F4F81F31088EFF3058212F027
:10205000FF0F124A1946106810D001AA019400F02F
:10206000F5F9019B002BE7D04FF080520C4B1A6022
:10207000E2E70848026813430360CCE700F0B6F9D2
:1020800002B070BD0C250220ABAAAAAACD15002073
:102090005021002018240220CC150020802402208A
:1020A00004ED00E02DE9F0434FF05045354CD5F8F4
:1020B00000C094F800E00646E6450F4614461D466B
:1020C00083B00CD000230268C2E88F3F81F31088F0
:1020D0002046294603B0BDE8F043FFF761BAFFF799
:1020E000E7FA40F2E7320023201A65EB010110EB1A
:1020F000020841EB0309424573EB09031EDB32681A
:102100000023C2E88F3F87F310881F4B5A6A95421D
:1021100008D89B6AA34203D3012003B0BDE8F08333
:102120009542F9D14FF08052184B1A60BFF34F8F90
:10213000BFF36F8F002003B0BDE8F08340464946EF
:102140004FF47A72002306F0DBFA0028D7D0002380
:102150003268C2E88F3F87F3108801220C4F36683F
:102160000C49F61BA1FB067109090B4F01EB41015C
:10217000A6EBC1010090386802FA01F100F0DCF82A
:10218000C3E700BFCD15002000000B4004ED00E0C8
:102190000C250220ABAAAAAA8024022008B5FEF7CB
:1021A000B7FB044B044A1844106000F0B7F8034B27
:1021B000186008BD0C250220502100208024022038
:1021C000094A1168086806C881F30B88022181F367
:1021D0001488203080F30988BFF36F8F4FF0000020
:1021E00080F31188104700005421002062B661B6C8
:1021F000BFF34F8FBFF36F8F66DF00BFEFF3118028
:102200004FF0100181F31188BFF34F8FBFF36F8F31
:10221000704700BF80F31188BFF34F8FBFF36F8FFC
:10222000704700BFEFF309811EF0100F08BF21EDCA
:10223000108AEFF30B82734621E9FC0F55FC08442A
:1022400057FC096459FC0A8401E9F003144A136835
:1022500019604FF0100181F31188BFF34F8FBFF366
:102260006F8F01F011F84FF0000080F311880C4AD5
:10227000116808681838B0E8F00345EC004447ECF2
:10228000016449EC0284B0E8FC0F13F0100F08BFA2
:10229000B0EC108A82F30B8880F30988184700009D
:1022A000542100201EF0040F0CBFEFF30880EFF361
:1022B0000980014908470000C11D0010F8B5054616
:1022C0000C4600F0A1FE29682E6905F10C07214398
:1022D000B74229601CD000240BE00B4207D0D2018A
:1022E00041F0007148BF1C4301F0BEF92968B742B4
:1022F0000CD03268304612F0806F766822F07F434F
:10230000EBD033EA010CEAD0B742F2D121EA040162
:102310002960BDE8F84000F07FBE00BF10B51C206A
:10232000FFF7DAFB044620B1002340F8043B00F03D
:1023300099F8204610BD00BF2DE9F04106461F4622
:102340000D46904600F060FE346867B92C420DD00F
:10235000B8F1000F0CD024EA0505356000F05CFEF2
:102360002046BDE8F08135EA0403F1D0069B23B98D
:1023700000F052FE2046BDE8F081B8F1000F1A4689
:102380000BBF4FF080614FF0A06100234FF08073CE
:10239000002F08BF1946301D294300F0FFFF00F051
:1023A0003BFE48B101F05EFA830104460BD524F0F0
:1023B0007F442046BDE8F081FFF7DCFC01F052FAD3
:1023C00083010446F3D4FFF7E1FC346857B9254292
:1023D00005D0B8F1000F02D024EA05053560FFF7FB
:1023E000E3FCE4E735EA0403F9D1F2E7F8B5064681
:1023F0000D4600F009FE31683469294306F10C05E9
:10240000A54231601CD000270BE00A4207D0DB0157
:1024100041F0007148BF174301F026F93168A54229
:102420000CD02368204613F0806F646823F07F424D
:10243000EBD032EA010CEAD0A542F2D121EA070141
:10244000316000F0E9FD3068F8BD00BF10B40C4603
:1024500013460146224602485DF8044B01F0F8BBE2
:10246000BD2200104FF0FF31002200F10803C0E947
:102470000023C0E903338160704700BF002303617C
:10248000704700BF30B40D686B1C10D000F108031A
:102490001C465B681A68AA42FAD902684B6001328E
:1024A00099608C606160086130BC026070470469AB
:1024B0006368F2E7026910B4D0E9011354688B60D5
:1024C00059600021844208BF536013680161581E9F
:1024D0005DF8044B1060704770B50446006CA66B45
:1024E00028B92568002D2ED00136A66370BD15468B
:1024F00002467DB9606805F0D3FF6368216CA2686D
:102500000B44934263601AD3226801362846626006
:10251000A66370BDE06805F0C3FF226CE368216824
:102520009B1A8B42E360C2F1000202D2A3681A44F4
:10253000E260022D0CD001360020A66370BD01368A
:102540002846A66370BDA06801F03CF9A560CBE702
:10255000012E38BF01260020C7E700BF2DE9F04754
:10256000054684B0FFF712FC95F8456076B2002E60
:102570001DDD05F1240809E0A26BE36B03959A4287
:102580003FD3731E13F0FF0F5EB210D0AC6C002C63
:10259000F2D16B6A5BB1404600F0ECFF0028F0D04E
:1025A00001F004F9731E13F0FF0F5EB2EED1FF23AA
:1025B00085F84530FFF7F8FBFFF7E8FB95F8444056
:1025C00064B2002C15DD05F1100604E0631E13F063
:1025D000FF0F5CB20DD02B695BB1304600F0CAFF33
:1025E0000028F3D001F0E2F8631E13F0FF0F5CB295
:1025F000F1D1FF2385F8443004B0BDE8F047FFF780
:10260000D3BB94F84570226CD4F838907FB28AB965
:102610002368002B37D04FF0000A09F10103A363B0
:102620007B1C1BD1636A2BBBBAF1000FA9D001F050
:10263000BDF8B7E703A9606805F032FF6368216C55
:10264000A2680B4493426360E5D323684FF0000A0D
:10265000636009F10103A3637B1CE3D000F0FEFD7E
:10266000B842E1D901377FB284F84570BAF1000F62
:10267000DDD186E704F1240000F07CFF0028D3D0F0
:1026800001F094F88EE7A068019301F09BF8019B9C
:102690008246A360C1E700BFF0B5846C83B0A26B33
:1026A000E36B01909A4203D30025284603B0F0BDA6
:1026B00094F84560226CA76B76B2E2B101A960681C
:1026C00005F0EEFE6368216CA2680B4493426360E0
:1026D00013D30025236863600137731CA76312D1ED
:1026E000636A002BE1D004F1240000F043FF0028CE
:1026F00018BF0125D9E7256875B10137731C4FF064
:102700000005A763ECD000F0A9FD8642CDD20136CA
:1027100076B284F84560C8E7A06801F053F8A56078
:102720000546D9E7F8B5C0B31746A0FB01230E460E
:10273000054693BB01FB00F010F1550F2DD8543026
:10274000FFF7CAF9044640B356B300F15403C4E995
:102750000F560025FF262360FFF718FBD4E90F3240
:1027600003FB02F321689A1A0A440B44C4E90232BB
:102770006160A56304F1100084F8446084F845604A
:10278000FFF770FE04F12400FFF76CFEFFF70CFB6F
:1027900084F850702046A564F8BD00242046F8BD9A
:1027A0000346D4E72DE9F843044690461D460F46FC
:1027B000FFF7E2FBFFF722FDA26BE36B06469A42AE
:1027C00008D3022D06D000243046FFF723FD204613
:1027D000BDE8F88394F8453039462A465FB2204672
:1027E000D4F83890FFF778FE7B1C11D1A36CF3B1BD
:1027F000022D02D1B9F1000F12D12046FFF74CFF94
:1028000070B1B8F1000F0BD00124C8F80040DBE72D
:1028100000F024FD874203D201377FB284F845706F
:1028200001243046FFF7F6FC2046BDE8F883636AD2
:10283000002BF5D004F1240000F09CFE0028E0D12C
:10284000EEE700BF2DE9F041044684B00F46019247
:10285000FFF79CFAA56B002D58D1019B002B36D0B9
:1028600002A82E4600F05AFF04F12408FFF79CFA54
:1028700000F0CAFBFFF78AFA94F84430FF2B08BF38
:1028800084F8446094F84530FF2B08BF84F8456015
:10289000FFF78AFA01A902A800F04CFFE8B9FFF798
:1028A00075FAA36B33BBFFF77FFA4046019900F03E
:1028B00019FD2046FFF752FE00F0AEFB00283DD088
:1028C000FFF764FAA56B0DBB019B002BCED1FFF780
:1028D0006BFA002004B0BDE8F0812046FFF73EFE11
:1028E00000F09AFBFFF752FAA36B002BEFD0FFF733
:1028F0005BFAE5E7FFF758FA2046FFF72FFE00F0F6
:102900008BFBFFF743FAA56B002DDDD0226C5AB18B
:10291000D4E9023111449942E16028BF2168384668
:1029200028BFE16005F0BCFD2369013DA56343B903
:10293000FFF73AFA012004B0BDE8F081FFF71AFA78
:10294000BEE704F1100000F015FE0028F0D0FFF7FC
:1029500011FAEDE7002973D070B4002423463D4DF1
:1029600005EBC3025268DE00824267D034B1013306
:10297000082BF5D1C4E9001070BC704755F833201E
:10298000002A58D0072B03F10102F5D005EBC20451
:102990006468D600A04251D055F83240002C50D087
:1029A000062B03F10202E7D005EBC2046468D600EF
:1029B000A04243D055F83240002C42D0052B03F101
:1029C0000302D9D005EBC2046468D600844235D036
:1029D00055F83240ACB3042B03F10402CCD005EB24
:1029E000C2046468D600A04228D055F8324044B3EF
:1029F000032B03F10502BFD005EBC2046468D600C7
:102A0000A0421BD055F83240DCB1022B03F1060680
:102A1000B2D005EBC602526890420ED055F836206F
:102A200092B1012BA8D0EB6B984210D0AB6B002B6E
:102A3000A2D107233826AC1999E7F600AC1999E71B
:102A400070471346AC1992E73346F600F3E7382691
:102A5000F4E700BF2C25022070B504460E4615464B
:102A6000FFF794F994F84430FF2B04BF002384F857
:102A7000443094F84530FF2B04BF002384F84530E0
:102A8000FFF792F9A36B23B12046BDE87040FFF732
:102A900065BD04F124002A46314600F0F1FC2046D1
:102AA000BDE87040FFF75ABD2DE9F84F0446FFF727
:102AB0006DF93F4A3F4E1368013313603368002BB2
:102AC00044D0DFF81081D8F80030002B36D0E56A0A
:102AD000394F012105EB850307EB830EDEF8040077
:102AE000DFF8F4908268DFF8F4C0E260D9F80020E3
:102AF0009B0002EB010BD0F808A0FA58C9F800B00F
:102B0000DCF80090A940251DA060C4F844B0013253
:102B1000CAF8045041EA09018560C4F814E0CCF811
:102B20000010FA50FFF740F9D8F8003023B13268AE
:102B3000E36AD26A9A4212D3BDE8F88F3368E56A35
:102B4000DB6A1D4FAB4298BF3460C2E73460136844
:102B5000012B08D0E56A184FDFF87880B9E7BDE8A7
:102B6000F84FFFF707B9144F3D4607F52078284680
:102B70001435FFF777FCA845F9D1104DDFF86080D8
:102B80002846FFF76FFC4046FFF76CFC0C48FFF748
:102B900069FC0C48FFF766FC0B48FFF763FC0B4A27
:102BA0000B4B1560C3F80080E56ADFF8288090E7DA
:102BB0001C240220542100206C21002058240220D3
:102BC000A8240220DC240220C82402205C2100204A
:102BD00064210020BC240220282402202C2402206E
:102BE0006C24022080B5124CDFF85080114E124F39
:102BF00015E0FFF7CBF8D8F80C30DD68281DFFF79B
:102C000059FC3368013B33602368013B2360FFF7C5
:102C1000CBF8286BFEF7E6FF2846FEF7E3FF2368B4
:102C2000002BE6D13B68012BF9D9FFF7A3F8F6E7B3
:102C3000202402201C2402206C210020DC240220FD
:102C40002DE9F04F5A4B85B01A6802F1010EC3F816
:102C500000E0BEF1000F6DD0564B03931B689E45FC
:102C60007ED3DFF85C81D8F800301868002800F0C7
:102C70009B800020504B8446504FDFF854910293C4
:102C80004AE05869D3E9021246688A60A6424FF0CA
:102C900000065160016808BF42609A6A01395E61AE
:102CA00001606AB1D3E9070156688160196AAE42D2
:102CB000486008BF516000219962116801391160B4
:102CC0000120DA6AD9F800A002EB820507EB850142
:102CD0000191496800FA02F6886846EA0A06C9F8CE
:102CE000006057F82560D86002989960D0F800A07D
:102CF0008868D8F800B044608C6001990136596149
:102D000047F82560DAF82C10DBF800308A4288BFDB
:102D10004FF0010C002B41D0D8F80030DB68DB68A5
:102D20005A681C1D964503F11805AAD2039B6046FC
:102D30001A6019E0224B234A1868146822491C6063
:102D400010600A6801320A601A681268F2B94FF01E
:102D5000FF33184A136013461B6803929E4580D2C6
:102D60000020154B154F0293029B184A1B681268EE
:102D7000DB6A03EB830357F82330022B28BF0120C3
:102D8000002A18BF012005B0BDE8F08F1B68094A72
:102D9000DB6803921B68136013465FE760464FF0E1
:102DA000FF33039A1360DFE7034B044F0293F6E708
:102DB000F024022094240220542100206C210020C1
:102DC0005C2100206421002098240220FC240220A1
:102DD0002C2402202DE9F8439600804630460D460B
:102DE0009946FEF779FE002800F092800746702091
:102DF000FEF772FE0446002800F08E80702200214B
:102E000005F0C4FB32463846A521276305F0BEFB1A
:102E1000206B043E064426F00706002D56D02B7882
:102E200084F834302B78002B4DD06B7884F8353013
:102E30006B78002B47D0AB7884F83630AB78002B1A
:102E400041D0EB7884F83730EB78002B3BD02B79EE
:102E500084F838302B79002B35D06B7984F83930F1
:102E60006B79002B2FD0AB7984F83A30AB7953B320
:102E7000EB7984F83B30EB792BB32B7A84F83C3038
:102E80002B7A03B36B7A84F83D306B7ADBB1AB7A83
:102E900084F83E30AB7AB3B1EB7A84F83F30EB7A0A
:102EA0008BB12B7B84F840302B7B63B16B7B84F838
:102EB00041306B7B3BB1AB7B84F84230AB7B13B1D1
:102EC000EB7B84F84330002384F84330089D201DB9
:102ED0001F2D28BF1F25E562E564FFF7CFFAC5F176
:102EE000200504F11800FFF7C9FA4B464246304668
:102EF000216BA56124616462FEF778FF099B206065
:102F000003B11C602046FFF7CFFD0120BDE8F88328
:102F10004FF0FF30BDE8F8833846FEF763FE4FF010
:102F2000FF30BDE8F88300BF44F24C5370B54FF456
:102F3000006084B0ADF80230FEF7CEFD00284BD023
:102F400005467020FEF7C8FD0446002848D07022D0
:102F5000002105F01BFBA521256328464FF40062E4
:102F600005F014FB002544F24942206BBDF8023005
:102F7000A286E38600F2FC7684F83850201D84F89F
:102F80004350E562E564FFF779FA04F11800FFF7B2
:102F900075FA202226F00706216BA2612B46144AFF
:102FA000246164623046FEF721FF124B2060204608
:102FB0001C60FFF779FD00F009FE012804460BD1E3
:102FC000FFF71CF94FF0FF300B490C4A0C4B08601F
:102FD00014601D60FEF748FF0A4B1B6804B070BD0B
:102FE0002846FEF7FFFD074B1B6804B070BD00BF0D
:102FF000E52B00108824022094240220BC24022007
:10300000F0240220D4150020024A13680133136013
:10301000704700BF242402202DE9F04FDFF87C81A7
:1030200083B0FEF7B3FED8F80030013BC8F800309B
:10303000D8F80030002B40F08D80524A1268002AE8
:1030400000F08880DFF85891D9F80020002A00F0BD
:1030500096809B464C4BDFF84CA1DFF84CC10193A6
:10306000D9F80C30DB689A6AD3E9071088601D6ACA
:103070005468696003F118018C42116808BF506000
:103080000139C3F828B011604FF0010ED3E90212E4
:1030900058691D1D44688A60AC42516008BF426097
:1030A000DA6ADAF8006002EB82040EFA02FE4EEAF7
:1030B000060E0CEB840706687968013ECAF800E04A
:1030C000D1F808E006603148C3F80CE006685CF807
:1030D0002400F66AD1F808E00130B2429960CEF8D7
:1030E00004508D605F61D9F800304CF8240039D964
:1030F000019A114601220A60002BB1D1244B1A68B3
:103100001268002A36D01A68224BD26812681A60F8
:10311000214D2C689CB10126019F05E0FFF790FD31
:1031200000B13E60013C09D0D8F80030002BF5D04A
:103130002B68013C03F101032B60F5D12C60019B4E
:103140001B683BB10120114B01901B68FEF712FE7A
:10315000019800E000200190FEF726FE019803B0E0
:10316000BDE8F08F002B7FF47BAF094B1A68126823
:10317000002AC8D14FF0FF32064B1A60C8E7024B55
:103180000193C5E71C240220FC24022054210020C6
:103190005C21002094240220A42402202424022064
:1031A000A82402202C2402206C21002008B9FEF75C
:1031B000E1BD204A2DE9F041136804460133136054
:1031C00000221D481D4B1E4D1E4906680F68D3F88E
:1031D00000802B68286883F86D200430FFF76AF9B7
:1031E00040B901222B681849D86A0B68824023EA4B
:1031F00002030B602B68A41929685C600DD2384665
:103200000431FFF73FF9114B1A68944238BF1C6034
:10321000FFF702FF48B1BDE8F08140460431FFF7F7
:1032200031F9FFF7F9FE0028F5D1BDE8F041FEF7CE
:10323000A1BD00BF24240220F0240220642100202C
:10324000542100205C2100202C2402209424022000
:10325000014B1868704700BFF0240220014B18682A
:10326000704700BF1C240220054B1B680BB9FFF7F9
:10327000E7BC044A0020136801331360704700BFA5
:1032800024240220A4240220114B1B681BB101221C
:10329000104B1A6070470F490F4A0B601368B3FA5E
:1032A00083F30E4AC3F11F0303EB830302EB830195
:1032B0000B464868083342689A424A6008BFCA68A9
:1032C000074B08BF4A60D2681A601B68704700BF8E
:1032D00024240220FC2402202C2402206C21002023
:1032E000542100202DE9F041254D0C462968183164
:1032F000FFF7C8F800222348234B244906680F68CB
:10330000D3F800802B68286883F86D200430FFF71D
:10331000D1F840B901222B681D49D86A0B68824058
:1033200023EA02030B60631C15D02B68A4192968DB
:103330005C600AD238460431FFF7A4F8154B1A68CE
:10334000944238BF1C60BDE8F0814046BDE8F041C2
:103350000431FFF797B8104B2C685A6829689068B9
:103360002E68A260C8601868296894682F680436BF
:10337000043101306660186091607B61BDE8F081C6
:1033800054210020F0240220642100205C21002030
:103390002C24022094240220C82402204FF0000C88
:1033A0002DE9F0412F4C4368266841F000419D68AB
:1033B000B16126682168F3610D6221689D6818314A
:1033C00069602568016818359D60DFF8B0E0236802
:1033D000254E264F0131DEF8008098623668016084
:1033E0003F682368206883F86DC004301546FFF7F6
:1033F00061F840B9012223681D49D86A0B688240F0
:1034000023EA02030B606B1C16D0236815EB08053A
:1034100021685D600AD230460431FFF733F8154B5E
:103420001A68954238BF1D60BDE8F0813846BDE896
:10343000F0410431FFF726B80F4B25685A68216820
:1034400090682668AA60C86018682168956827682F
:103450000436043101306E60186091607B61BDE814
:10346000F08100BF542100205C2100206421002055
:103470002C24022094240220C8240220F0240220BC
:103480004FF0000C2DE9F8434368334C9E682768E1
:103490002568FB612E622568161E9A6805F11805DD
:1034A00055602568026805F118059D60DFF8BC903D
:1034B00023682A4FDFF8B8E002F10102D9F8009042
:1034C00098623F680260DEF800802368206883F815
:1034D0006DC000F104000CBF0D464FF0FF35FEF744
:1034E000E9FF40B9012223681D49D86A0B68824070
:1034F00023EA02030B606B1C16D0236815EB090549
:1035000021685D600AD238460431FEF7BBFF154BD7
:103510001A68954238BF1D60BDE8F8834046BDE893
:10352000F8430431FEF7AEBF002EE6D00E4B2568FF
:103530005A68216890682668AA60C860186821687F
:10354000956827680436043101306E601860916018
:103550007B61BDE8F88300BF542100205C2100207E
:103560002C24022094240220C8240220F0240220CB
:1035700064210020C3682DE9F043DB689A6A03F1F7
:1035800018005568D3E9074185424FF00005A16056
:103590004C602F4C08BF51601168246801399D624E
:1035A0001160002C3ED1D3E902214FF001095D6981
:1035B0009160D96868681F1D4A60DA6A254EB84272
:1035C00008BF696002EB820106EB810C2868DCF819
:1035D000044000F1FF3ED4F80880C5F800E0DFF8B1
:1035E00084E0C3F80C80D4F8088009FA02F0DEF811
:1035F00000908900755840EA09009C60C8F8047082
:10360000A760C3F814C0144BCEF800001B68013546
:10361000DB6A7550934217D20123104A1846136093
:10362000BDE8F0830E49DA6AD1E90054A668013595
:103630001E620D60A568DC616860A0609962064B3F
:103640001B68DB6A9342E7D30020BDE8F08300BF2C
:10365000242402206C21002054210020FC2402207C
:10366000A82402202C24022041F000412DE9F0473B
:10367000D0E90145C36802690160A56081685568A9
:103680004C6000244FF0010E854208BF5160116864
:1036900004615C690139D3E90205116061688560E4
:1036A0001E1DDA68B142D96A184D506008BF6260C9
:1036B00001EB81022768DFF8608005EB820CDCF803
:1036C0000400D8F800A0013FD0F8089027600EFA57
:1036D00001F444EA0A04C8F800400D4C920027683F
:1036E000C3F80C90AC58D0F80880FF6A9860B942D3
:1036F000C8F804608660C3F814C088BF054B7444E2
:10370000AC5088BFC3F800E0BDE8F0876C21002012
:1037100054210020FC2402202C240220034A044BC4
:1037200012681B68C0E90023704700BF982402207C
:10373000F0240220F0B583B005460E46184CFEF783
:1037400025FB184A2168136893F86D0050B10021D9
:103750000120136883F86D100190FEF725FB019896
:1037600003B0F0BD3268531CF6D0D5E90003DFF892
:1037700038C0DCF80070B84205D08B4203D8002373
:1037800001203360E8E7CF1ABA42F8D9DCF80070BC
:10379000521A21681A4432600020C5E90071DBE743
:1037A000F024022054210020982402200122014B01
:1037B0001A607047FC240220014B1868704700BF54
:1037C0005421002068B1036DC16AC26C013B914273
:1037D0002DE9F0470446036500D023B10020BDE881
:1037E000F0870020704700F104084046FEF762FEB3
:1037F00038B3DFF86CC001221046E36C174E03EBC0
:10380000830106EB810EDEF804508900AF68DCF816
:1038100000A0E7607758D5F808909A40E362074423
:1038200042EA0A02C3F12003A560A361CCF800209C
:10383000C9F80480C5F80880C4F814E07750BDE8E2
:10384000F0870122DFF818C0E16ADCF800308A4016
:1038500023EA0203CCF80030CDE700BF6C21002042
:103860002C240220044A116813681268DB6A8869F4
:10387000C3F1200393617047542100202DE9F04FDC
:103880004FF00009DFF8E482DFF8E4A2DFF8E4B2E9
:1038900087B0D8F800301C68002C00F0B080DB68DE
:1038A0001C68FFF7B1FBFFF7D3FCDAF800300646DF
:1038B000834200F2B6808442CAF8000040F23D81A3
:1038C0000022A94BA11B1868FFF7C6F8FFF7A4FB5D
:1038D000002800F02481CDE90299CDE90499A24B9A
:1038E0000022186802A9FEF7ADFF0028D1D0029B84
:1038F000002B7BDB049E736913B1301DFEF7DAFDEC
:10390000FFF7A6FCDAF8003007469842C0F0C980FD
:10391000029BCAF80070013B082BE0D8DFE803F0F7
:103920000505553F5C0505553F0096F82810039A9C
:10393000B06941F00104131886F828402CBF012417
:103940000024BB423661736000F2EC80BA1A9042E8
:1039500035D84C070FD421F0010186F828103046E5
:10396000336A9847BBE78242C0F02A813046336A07
:1039700098472346B0691C182CBF01210021A7429B
:10398000A7EB030236617460EDD29F4201D2002999
:10399000ECD0D8F80000311DFEF774FDDFE7039A84
:1039A00096F82830D11943F00103B942366186F800
:1039B0002830B261716000F2BA80002A8FD0DBF843
:1039C0000000311DFEF75EFD89E796F8283023F0F0
:1039D000010386F8283082E796F828309A0740F1EC
:1039E000E58023F0010386F8283078E7039BDDE9C2
:1039F00004019847029B002BFFF671AF7AE7FFF7AF
:103A000003FBFFF725FCDAF800300646984208D39E
:103A1000DBF80030CAF800601A68B2FA82F2520984
:103A20004FE7D8F800301A68002A2FD000960AE035
:103A300023F0010384F82830236A20469847D8F8F9
:103A400000301A680AB3DB68DC681D68271D384639
:103A5000FEF730FD94F828305907E9D5E943A3690A
:103A60002461EE189942666009D3F543236A204623
:103A70009847A36924611E44AB426660F5D9394674
:103A8000DBF80000FEF7FEFCD6E7009EDBF8002026
:103A9000CAF80060C8F80020CBF80030FFF7BCFA85
:103AA00019E7D8F800301A68002A31D0CDE9006053
:103AB0000AE023F0010384F82830236A204698475F
:103AC000D8F800301A680AB3DB68DC681D68261D68
:103AD0003046FEF7EFFC94F828305F07E9D5EA435B
:103AE000A36924611D449A42656009D3EF43236AA8
:103AF00020469847A36924611D44BB426560F5D9FF
:103B00003146DBF80000FEF7BDFCD6E7DDE90067D3
:103B1000DBF80020CBF80030C8F80020F8E6FEF70C
:103B200029F9D8E6BA4202D9002C3FF412AFD8F8EE
:103B30000000311DFEF7A6FCD1E6FFF76DFAD8F8BC
:103B40000030DB68DD682F1D3846FEF7B3FC95F8C2
:103B500028305A0716D423F0010385F82830284668
:103B60002B6A9847B7E600BFF424022058210020B2
:103B70008C240220682100208B421BD828462B6A07
:103B800014469847AB69311BE2182CBF0120002076
:103B9000B2422D616A60EFD9B44201D90028EDD05C
:103BA0003946D8F80000FEF76DFCD8E73046FEF73E
:103BB00019F894E63946DBF80000FEF763FCCEE71F
:103BC000DBF80000311DFEF75DFCC8E6F0B5174CD0
:103BD00083B0FEF7DBF8256885B1FEF7E5F82068CD
:103BE00050B11F22124B1349CDE900231248002384
:103BF0004FF48062FFF7EEF803B0F0BD0F4F104EA8
:103C00003846FEF72FFC3046FEF72CFC0D490E4BD4
:103C10000F602A4610210A201E60FEF783FD2060F7
:103C20000028DAD00949FEF795FED6E7F4240220F1
:103C3000F8240220208900107D3800103024022052
:103C400044240220582100206821002018890010F7
:103C500070B5064615466FF00104074884B01A4651
:103C60000291002369460068019603950094FEF7CF
:103C700099FD04B070BD00BFF4240220F8B50446DD
:103C80000D46EFF3108772B60C4B9B6853F820601B
:103C9000B14205D00A4B9E420CD30A4B9E4209D238
:103CA000064B9B6843F82450BFF35F8F87F310885F
:103CB0003046F8BD00F086F8F2E700BF00ED00E006
:103CC0001001001024010010F8B504463A4E0F46CA
:103CD000FCF794FDB27896F9003002F00102DB0F98
:103CE00043EA42032342327853D096F90130C2F3BB
:103CF0008011DB0F41EA4301214273784CD0C3F3BA
:103D00008011C2F3401545EA4101214247D0C3F377
:103D10004011C2F3001545EA4101214242D0C3F3EC
:103D20000011C2F3C00545EA410121423DD0C3F371
:103D3000C001C2F3800545EA4101214215D0C3F319
:103D40008001C2F3400545EA410121421CD003F045
:103D5000020302F001051D43254018D047BB6FF058
:103D60000805FCF75DFD2846F8BD02250423E107A0
:103D700044BF1A433270A207F3D5727813437370AD
:103D8000FCF74EFD2846F8BD01250223EFE701238D
:103D9000EDE707258023EAE706254023E7E7052529
:103DA0002023E4E704251023E1E703250823DEE7C9
:103DB0000248FCF70BFD00BF0C1D002028890010F5
:103DC000704700BF08B50148FCF700FD3C890010B2
:103DD00038B5084D084B9D420BD2013B5B1B23F0CD
:103DE000030304332C461D4454F8043B9847AC426B
:103DF000FAD138BD60870010A0870010074B30B49F
:103E00001946074C074D0848084A256003601368A7
:103E100031EA0303FBD130BC704700BFF6FFF30368
:103E2000002002407F3BEFEF0030024008000240DC
:103E3000044BDB6CB3F5004F03D14FF48022024BEF
:103E40001A607047000011504C2011504EF68853F4
:103E500003F160431968034A0A431A6010EE300404
:103E6000704700BF030330006FF06041044B054A08
:103E700019601368DB4333F06043FAD1704700BF29
:103E8000003002400800024010B545F25320FDF713
:103E9000D7FCBDE8104003460420184710B545F292
:103EA0005320FDF7CDFCBDE8104003460120184724
:103EB000FCF754BD70B52A492A4C2B4E641AA51044
:103EC000442D2A4628BF44223046920004F0E8FAE6
:103ED000432D3FD8C5F1430133190529234AC3F3C4
:103EE0008003C5F1440015D9BBB346F825206C1CEE
:103EF000C01A2B4406EB8303410803EBC101C3E95D
:103F0000002208339942FAD120F00103984204EBD1
:103F100003051FD0432D46F8252005F1010319D0D4
:103F2000422D46F8232005F1020313D0412D46F817
:103F3000232005F103030DD0402D46F8232005F181
:103F4000040307D03F2D46F8232005F1050301D0D7
:103F500046F82320064B9E6070BD2C46C8E700BF84
:103F600000000010100100100000002011010010DE
:103F700000ED00E0002370B52C4C82B0C4F8843012
:103F8000FDF790FC01212246294B1960536C012B4F
:103F9000FCD10321274A254B11609C6B012CFCD1DD
:103FA000052502262B462146234A24480096FDF784
:103FB0008BFB2B462146224A22480095FDF784FBC5
:103FC000314600220420204BFCF79AFB284621466C
:103FD00000221E4BFCF794FB0022082011461C4BCC
:103FE000FCF78EFB002209201146194BFCF788FBD9
:103FF000002206201146154BFCF782FB0022134BD2
:1040000011460720FCF77CFB0420FCF7D9FB0024B9
:10401000104DA5FB0035AD0CE0B229460134FDF78B
:10402000E7FB062CF8D102B070BD00BF00000140D4
:104030003C30014030300140002F685900000540FD
:10404000008C864700800540001BB70080D1F00837
:10405000006CDC0283DE1B4386B003B451FC080411
:10406000CDE9020151FC0904CDE9040151EC0A0437
:10407000CDE9060103BCF047BDE800504EEC00C49A
:10408000BDE800504EEC01C4BDE800504EEC02C447
:1040900000BD000000B5FFF7DFFF02E010FE30F4C6
:1040A000F8D441EC100443EC112400EE010410EEAE
:1040B000010480EE200451EC1004704700B5FFF7B6
:1040C000CBFF02E010FE30F4F8D441EC100443ECD6
:1040D000112400EE010410EE210480EE200451ECC6
:1040E0003004704700B5FFF7B7FF02E010FE30F470
:1040F000F8D410B541EC100443EC112451EC040445
:1041000053EC0524A0FB024C5FF0000EE0FB03CE55
:10411000E1FB02CE4CEC20440024E1FB03E444EC40
:1041200030E480EE200451EC5004BDE810407047AC
:1041300000B5FFF791FF02E010FE30F4F8D441EC37
:10414000100443EC112451EC2104A0FB01126FEA8E
:10415000820252FB100052FB12F252FB1000A0EB45
:10416000D07C53EC04245CFB13F153EC1524A1FB2D
:10417000022001FB030053EC4424A2EB000050FB9F
:104180001CF24FEA111312EB017043EBE27140EAAB
:10419000515020EA915020F0070053EC7524A0FB09
:1041A000023C53EC752400FB03CC01FB02CC53EC26
:1041B0000424ACEB824C40EA5C70A0F1010041ECBD
:1041C000400480EE200451EC7004704700B5FFF706
:1041D00043FF02E010FE30F4F8D440EC700400EE2F
:1041E000010410EE210480EE200451EC30047047ED
:1041F00000B5FFF731FF02E010FE30F4F8D440ECD8
:10420000600400EE010410EE210480EE200451EC65
:104210003004704700B5FFF71FFF02E010FE30F4D6
:10422000F8D441EC800400EE010410EE010480EEAD
:10423000400410EE1304704700B5FFF70DFF02E0D5
:1042400010FE30F4F8D441EC800400EE010410EECE
:10425000010480EE400410EE3304704700B5FFF710
:10426000FBFE02E010FE30F4F8D441EC100443EC05
:10427000112400EE010410EE3004C0F3007070470A
:1042800000B5FFF7E9FE02E010FE30F4F8D443EC8D
:10429000102441EC110400EE010410EE30F48CBF48
:1042A00001200020704700BF00B5FFF7D5FE02E0F7
:1042B00010FE30F4F8D443EC102441EC110400EE6D
:1042C000010410EE30F42CBF01200020704700BF25
:1042D00000B5FFF7C1FE02E010FE30F4F8D441EC67
:1042E000100443EC112400EE010410EE30F42CBF56
:1042F00001200020704700BF00B5FFF7ADFE02E0CF
:1043000010FE30F4F8D441EC100443EC112400EE1C
:10431000010410EE30F48CBF01200020704700BF74
:10432000704700BF2DE9F84F9A460D9B17469A0734
:1043300005468B46DDF8288011D1DDE90B3293422A
:104340000DD213463C460B9A9E1A3E4422465346D3
:10435000594620200134A847B442F7D100E03E4638
:104360000B9B73B108EB030406EB0409A9EB0402F1
:1043700014F8010D53465946A8474445F6D10B9B06
:104380001E440D9B9B0719D50C9BF41BA34215D90A
:104390009846E2195346594620200134A84744451F
:1043A000F7D30C9B0C9A013B3B44C7F101079B1BC5
:1043B0003744BA4238BF002301361E443046BDE8B8
:1043C000F88F00BF2DE9F04F0F9F9DF82C90BD078F
:1043D0000E9EDDE909E4DDE90C8C2AD4002E69D1BA
:1043E000644507F0010B80F0C5801F2C88BF202496
:1043F00000F2C080651E4FF0300A754401E0202CA9
:1044000004D00134A44505F801AFF8D8BBF1000F82
:104410000FD0B4420DD21F2C5DD8651E4FF0300A6C
:10442000754401E0202C56D00134B44205F801AFA8
:10443000F8D1FD0630D57D0557D4002C51D1B8F107
:10444000100F7CD0B8F1020F00F08F8030248EF86E
:1044500000400124B9F1000F23D02D250EF804509F
:104460000134CDE90B67CDE909E4BDE8F04FFFF772
:1044700059BFBD066AD4202CF3D00EEB040C0134D6
:1044800078258CF80050202CEBD04FF0300C0EEB40
:10449000040585F800C00134202CE2D0B9F1000FEA
:1044A000DBD17D0733D43D07DBD520250EF8045042
:1044B0000134D6E717F0010B23D0B9F1000F32D148
:1044C00017F00C0F2FD16445A3D21F2C92D9202EA8
:1044D00001D82024ADE7FD064FF02004C1D57D05AD
:1044E00003D4A44521D0A6421FD0B8F1100FC0D0EC
:1044F000B8F1020FC7D1202CB3D00EEB0405013464
:1045000047E0644595D21F2C7FF674AFE1E72B2579
:104510000EF804500134CDE90B67CDE909E4BDE89C
:10452000F04FFFF7FFBE013ECDE7651E87D0B8F123
:10453000100F24D0B8F1020F2AD02C46A5E7BC06F4
:104540000ED478248EF8004001249EE7202C88D0D9
:104550004FF0580C0EEB040585F800C0013492E7CB
:1045600058248EF8004001248FE762248EF8004022
:1045700001248AE7BBF1000F08BF002659E717F0B6
:10458000200FA4F10204E3D10EEB040C2C4677E7D4
:1045900075444FF0620C85F800C074E700B97047AD
:1045A00001F0E6BA10B1D1E900311847704700BFF9
:1045B0002DE9F04F2DED048B97B0DDE9246780469F
:1045C0008A4691469B463046394632463B46FFF77F
:1045D00049FE002840F0EA804FF0FF32304639466D
:1045E0007D4BFFF78DFE002840F0E0804FF0FF325A
:1045F0006FF4801330463946FFF746FE002840F03E
:10460000D5800022002330463946FFF73DFE0028C2
:1046100040F0D381CDE90867DDE90845289B13F414
:1046200080630C93269B08BF0623269354EA050358
:1046300040F0D680289B13F4006300F0B88100237B
:10464000002400250A93269B19460A9B99421A4684
:10465000C9BF0A460023D01A00F1FF332693002376
:10466000289A0B9342F4806228920A93279B19465A
:104670000B9B99421A468ABF0A460023D31A0C9311
:10468000289B13F002030D9305D00B9B002B0C9B72
:1046900018BF00230C930A9B3BB1DDE908012246B9
:1046A0002B46FFF749FDCDE90801002200233046E3
:1046B0003946FFF7E9FD30B1DDE90801024601F1B5
:1046C0000043CDE908239DED087B0C9A289B0392BB
:1046D000269A23F40063029204938DED007B5B46DF
:1046E0004A465146404600F09BF90B9E0446002E78
:1046F0006BD0289B224613F0200F14BF4520652065
:104700005B465146C0470A990DF1380E00290B4609
:10471000B8BF4B42C90FF44600253048621C013E29
:10472000089101E0202D0FD01F46A0FB0341C908CE
:1047300001EB8104A3EB44033033092F0CF8013B58
:1047400005F101050B46EDD8052000210A23089C40
:10475000CDE90331CDE901545B4606905146404610
:104760000596CDF800E0FFF72DFE0D9B044663B3E0
:10477000279BA0EB0905AB4227D91E4609EB050292
:104780005B46514620200135C047AE42F6D8279BF4
:1047900009F1FF311944279AC9F10103091B234488
:1047A0009A4238BF002101340C440EE0289B4A464F
:1047B0000493279B51460393269B40460293CDE9E1
:1047C00000675B4600F02CF90446204617B0BDECAC
:1047D000048BBDE8F08F00BFFFFFEF7FCDCCCCCCCA
:1047E000C5F30A50A0F2FF30FFF7F4FC88A3D3E929
:1047F0000023FFF77BFC88A3D3E90023FFF74EFCDF
:1048000041EC170B2046C5F3130444F07F510022FE
:10481000794B41F4401155EC174BFFF753FC6AA359
:10482000D3E90023FFF762FC02460B4620462946E7
:10483000FFF734FCFFF7F2FC0A90FFF7CBFC64A310
:10484000D3E9002304460D46FFF750FC00226B4BD2
:10485000FFF724FCFFF7E2FC5FA3D3E900238446C3
:1048600029462046CDF82CC0FFF740FC04460B98A3
:104870000D46FFF7AFFC5AA3D3E90023FFF736FC40
:1048800002460B4620462946FFF71CFC02460B4613
:1048900004460D46FFF72AFC224641EC190B2B4635
:1048A00020462946FFF7FAFB002241EC180B544B37
:1048B00051EC190BFFF740FC0022524BFFF7EEFBC7
:1048C00002460B4651EC190BFFF736FC00224E4B0B
:1048D000FFF7E4FB02460B4651EC190BFFF72CFCEB
:1048E00041EC170B22462B4600204FF0804155EC3F
:1048F000174BFFF7E7FB02460B4620462946FFF71A
:10490000CDFB02460B4651EC180BFFF715FC0022BD
:104910003E4BFFF7C3FB0B9C002204F2FF34230540
:10492000FFF7E4FB04460D46DDE9080122462B466D
:10493000FFF7AAFC00282ED1204629460A9B6333A4
:10494000C72B34BF042305230B93289B1B057FF53E
:104950008DAE50EA01033FF476AE23A3D3E90023E2
:10496000DDE90801FFF7B8FC48B121A3D3E9002332
:10497000DDE90801FFF788FC00287FF464AE269B80
:10498000002B3FF473AE0C9B002B3FF46FAE269BC5
:10499000013B26936AE6204629461A4B0022FFF780
:1049A000CBFB0A9B0446013B0D460A93C6E70A93DC
:1049B0000423002400250B9358E607F100430896D2
:1049C000099329E6AFF3008061436F63A787D23F65
:1049D00071A379094F930A401655B5BBB16B0240DC
:1049E000EF39FAFE422EE63F2D431CEBE2361A3F2A
:1049F0000000000080842E410000F83F0000E03FEE
:104A000000002C4000002440000018400000F03F4F
:104A1000FB799F501344D33FB3C8608B288AC63FAD
:104A20002DE9F04F2DED028B86468C461C4615462F
:104A300095B0DDE920673046394632463B46CDE940
:104A40000954CDE907ECFFF70DFC229C002840F04B
:104A5000DD814FF0FF326FF4801330463946FFF7A7
:104A600013FC002840F010814FF0FF3230463946E9
:104A7000C34BFFF745FC002840F0DF80BCA3D3E91F
:104A8000002330463946FFF73BFC002840F0C38046
:104A9000B9A3D3E9002330463946FFF7F5FB0028D8
:104AA00040F0B9800022002330463946FFF7ECFB86
:104AB000002840F0DE800B90249B302213F4806F9E
:104AC00008BF06240CABA246A4F1200106E00AF1BF
:104AD000FF3A514503F8012B00F03B81BAF1090F71
:104AE000A4EB0A05F3D839463046FFF797FBA54BF0
:104AF000044603EBCA0393ED007BB0EE478AF0EE69
:104B0000678AFFF767FB02460B4630463946FFF7D8
:104B1000D9FA53EC182BFFF7E9FA89468046FFF7DC
:104B20008FFB8346FFF768FB02460B46404649462B
:104B3000FFF7C8FA0022944B80468946FFF7E0FB56
:104B4000002800F0F7800BF1010B5846FFF754FBEB
:104B500002460B4651EC180BFFF7AAFB10B14FF0C1
:104B6000000B0134BAF1000F40F0A1802046FFF79E
:104B700031FB02460B4630463946FFF7A3FA0022C6
:104B8000814B06460F46FFF77FFB40B900223046B7
:104B900039467D4BFFF7B4FB002800F01A816A1EEE
:104BA0000CAB7A491A44202D4FEAE47300F09A8046
:104BB00081FB0460C3EBA00303EB8300A4EB400480
:104BC000303402F8014F01351C46002BEBD1249BF9
:104BD00003F00303012B00F01481202D09D00B9B5F
:104BE000002B00F0B8802D2214AB2B4403F8202CAE
:104BF0000135249BDDE907010393239BCDE9015394
:104C00000CAB0093DDE90923FFF78CFB15B0BDEC7D
:104C1000028BBDE8F08F249BCDE90067DDE9070139
:104C20000493239BCDE90243DDE90923FFF7C0FC90
:104C300015B0BDEC028BBDE8F08F249B544C03F003
:104C40000403002B534B08BF0325DDE907011CBFFC
:104C50001C460425249A239B03920293CDE9004528
:104C6000DDE90923FFF75EFB15B0BDEC028BBDE863
:104C7000F08F3B46324600200021FFF723FA012344
:104C800006460F460B9317E72A460425249B424C01
:104C90000393239BCDE90045DDE9070102930A9BBD
:104CA000FFF740FB15B0BDEC028BBDE8F08F681E2E
:104CB0000CAB3A4F18440FE0A7FB0B32D20802EBC3
:104CC0008203ABEB43033033BBF1090F00F8013F24
:104CD00066D9B24693460D46202D0AF1FF3605F1FE
:104CE0000101E9D1249B03F00303012B81D1239B14
:104CF000002B3FF47EAF0B9B1BB9249B13F00C0FD2
:104D000002D0239B013B2393239BAB427FF665AFED
:104D1000202D0DD030226B1E0DEB02010B44239988
:104D200001358D4203F8012F3FF457AF202DF7D105
:104D300020255EE7404649460022134BFFF7A4FAC0
:104D400000287FF40FAFBBF1000F4ED10BF1010B28
:104D500008E72025C7E6249B5A073FD41B077FF5A9
:104D600048AF202214AB2B4403F8202C013540E738
:104D70000000000065CDCD410000000065CDCDC133
:104D8000FFFFEF7FF88900100000E03F676666666E
:104D9000E0890010E4890010F0890010CDCCCCCC63
:104DA000202927D00B466EB130200DEB00021544B0
:104DB0000133202B05F8010F2ED0DA430A4412EB01
:104DC0000A0FF5D12E2114AA1A4402F8201C5D1CEA
:104DD000E5E6E1077FF5E3AE0134E0E62B2214AB14
:104DE0002B4403F8202C013503E71BF0010F3FF49F
:104DF000B9AEABE7249B0D4603F00303012B7FF410
:104E0000F8AE239B002B3FF4E8AE74E7249B2A46C0
:104E1000084C032503933CE7249A02F00302012A7D
:104E200001D01D46E5E6239A1D46002A7FF463AFB4
:104E3000DFE600BFEC8900102DE9F04F2DED028B6D
:104E4000B04F1C46B04DB14E1B78B1F1000A9FB077
:104E500008BFBB46904618BF83462A9F2E60002B92
:104E600000F00E834FF0000918460AE04A46434618
:104E7000514609F101090134D8472078002800F093
:104E800026812528F2D10021631C1C4613F8010B52
:104E9000A0F12002102A0AD8DFE802F03C09093903
:104EA0000909090909090936093309093000A0F17E
:104EB0003003092B40F2ED802A2800F018810025EC
:104EC0002E2800F0F58000230993A0F16803122B2F
:104ED0002AD8DFE813F06D012900680129002200BB
:104EE0002900290029002900290029002900D900CA
:104EF00029002900290029002900D90041F00101D9
:104F0000C3E741F00201C0E741F00401BDE741F011
:104F10001001BAE741F00801B7E760786C2800F0AB
:104F2000AA8241F480710134A0F12503532B9DD84E
:104F300001A252F823F000BFF15100106D4E001095
:104F40006D4E00106D4E00106D4E00106D4E001035
:104F50006D4E00106D4E00106D4E00106D4E001025
:104F60006D4E00106D4E00106D4E00106D4E001015
:104F70006D4E00106D4E00106D4E00106D4E001005
:104F80006D4E00106D4E00106D4E00106D4E0010F5
:104F90006D4E00106D4E00106D4E00106D4E0010E5
:104FA0006D4E00106D4E00106D4E00106D4E0010D5
:104FB0006D4E00106D4E001033530010C1510010A3
:104FC000335300106D4E00106D4E00106D4E0010EA
:104FD0006D4E00106D4E00106D4E00106D4E0010A5
:104FE0006D4E00106D4E00106D4E00106D4E001095
:104FF0006D4E00106D4E00106D4E00106D4E001085
:105000006D4E0010115100106D4E00106D4E0010CD
:105010006D4E00106D4E00106D4E00106D4E001064
:105020006D4E00106D4E00106D4E001011510010AD
:10503000CF5200101151001033530010C151001015
:10504000335300106D4E0010115100106D4E0010C2
:105050006D4E00106D4E00106D4E00106D4E001024
:1050600011510010935200106D4E00106D4E001043
:10507000055200106D4E0010115100106D4E0010C1
:105080006D4E001011510010607841F480710134B0
:105090004AE7002505EB850500EB450514F8010FEF
:1050A000303DA0F13003092BF4D92E287FF40BAF4B
:1050B000607841F48061A0F13003092B04F1010212
:1050C00040F220812A2800F02C811446FBE64C4651
:1050D000C84501D808F1FF3943464A4651460020E9
:1050E000D84720461FB0BDEC028BBDE8F08F57F8C3
:1050F000045B6078002DBCBF41F002016D420134B9
:10510000DEE600BF214300101C210020394E0010B4
:10511000782800F05D81582800F0B5816F2800F0F4
:105120006081622800F07A8321F010030C930A2337
:1051300069280D9340F05881490540F15D810C9B31
:1051400023F001030C93692800F05681642800F0D5
:1051500053810C9B13F4007040F0B18213F4807102
:1051600040F05F835E0657F8042B40F14C82D2B2C8
:10517000002A40F07A820C9820F010030C9343052B
:1051800040F17382114616AB0A9300230C9A0191E9
:10519000CDE90552099A04920D9A03920A9A029354
:1051A00000924A465BE1607841F400710134BBE64D
:1051B0006078682800F05A8141F080010134B3E63C
:1051C000462808BF41F02001099BCDE9035107376C
:1051D000029327F00707F7E802014A46CDE90001EC
:1051E000434651465846FFF71BFC0134814644E6CE
:1051F0004A4609F10105434651462520A946013496
:10520000D8473AE63B4653F8046B0E93099B307837
:10521000002B00F0CC80002800F046835F1E7A1C33
:1052200033460C92B71801E0BB4205D013F8012FAA
:10523000002AF9D19B1B0C9311F480630A9305D0CB
:105240000C9B099A934228BF13460C9311F002035A
:105250000D9300F02381002800F039810A9B002B78
:1052600000F0AB80099B4A464B441F4608E043468A
:105270005146D84716F8010F09F1010910B14A4605
:105280004F45F4D10D9B002B40F021810E9F01343E
:10529000F3E557F8043B002B6BD041F0210016AA30
:1052A000154600210A9202E020296BD0134603F034
:1052B0000F063246092E94BF303237320F2B05F8D5
:1052C000012B01F101014FEA1312EDD85AE08E07CC
:1052D00040F10F8157F8040B43464A465146C0B28D
:1052E000D847012D09F1010688BF4D4407D9324640
:1052F0004346514620200136D847AE42F7D1B14649
:105300000134BAE5002303EB830300EB430312F8F7
:10531000010F303BA0F13004092CF4D91446099355
:10532000D3E557F8043BA07823EAE37309930234EA
:10533000CBE500F0DF03472B04BF00F0FD0041F494
:105340000061452808BF41F02001099BCDE90351C8
:105350000737029327F00707F7E802014A46CDE92D
:105360000001434651465846FFF722F90134814671
:1053700083E521F010004D0540F021008FD519463E
:1053800016AB0A9308220592099A00230492102270
:1053900003920A9A06900191009202934A4643466C
:1053A00051465846FFF70EF80134814665E56FF027
:1053B000010700287FF433AF3DE74A464346514694
:1053C000D84716F8010F09F101090028F5D159E76E
:1053D00010230D9321F00C034A050C937FF5B3AE17
:1053E000ADE608230D930C91642818BF0C99F1D1F8
:1053F0000C9B5A053FF5A3AE0C9B13F4007040F0D4
:10540000918013F4807140F07C815E0600F1DF80B2
:1054100013F0800F57F8043B00F041821BB283EA7F
:10542000E372A2EBE37292B2D80F0E90002B40F021
:10543000F2800C9820F0100340050C9340F1EB80B3
:1054400016AB0A934A460C9BCDE90553099B04937E
:105450000D9B03930E9BCDE901130A9B00934346DA
:1054600051465846FEF7AEFF814649E7A07841F025
:10547000C001023458E5A07841F44071023453E58C
:105480001C46994624E621F00C0343F020030C93BC
:1054900010230D934B053FF552AE5AE60C9A9542F8
:1054A00002F1010340F2048205EB0907BF1A4A46E4
:1054B00043465146202009F10109D847B945F6D1A4
:1054C00030786B1C0C9300287FF4C8AEDEE60C9B92
:1054D0004E469D427FF6DAAE05EB0900A0EB0309CC
:1054E00032464346514620200136D8474E45F7D133
:1054F000CCE6012D40F2DA8109F1FF331D444A4622
:1055000043465146202009F10109D847A945F6D163
:1055100057F8040B43462A465146C0B205F101092B
:10552000D847EDE6073727F00707F7E80223002AF8
:105530001946CDE90A2373F10003104667DB0B9B84
:10554000CDE91001D90F00230E910D990846194697
:10555000DDE90A2313433FD00C9BCDE9127913F008
:10556000200F14BF3722572216AB08EE108ACDE960
:105570001454DDE910450026CDF840B01F468046A2
:10558000894693460A9303E0202E17D004460D4621
:1055900042464B462046294603F082F8D2B2092AF9
:1055A00002F1300388BF02EB0B034D45DBB208BFAD
:1055B000444506F1010607F8013BE5D218EE108AD2
:1055C000DDE91279DDE91454DDF840B00DE057F85B
:1055D000043BDBB21A4627E70C9A22F010030C9327
:1055E0005305B9D5002616AB0A930C9B4A46CDE964
:1055F0000553099B04930D9B03930E9BCDE9016317
:105600000A9B00932BE7180648BF92B2B0E54042D0
:1056100061EB410193E70C9B07EE908A13F0200F9A
:1056200016AB14BF4FF0370E4FF0570E9C460D9837
:105630000A9302E0202915D03246B2FBF0F600FBB7
:1056400016285FFA88F3B8F1090F03F130088ABF12
:1056500073445FFA88F3DBB2824201F101010CF876
:10566000013BE7D217EE908AECE60C9B07EE908A9E
:1056700013F0200F16AB14BF4FF0370E4FF0570E3C
:105680009C460D980A9302E0202915D03246B2FBC1
:10569000F0F600FB16285FFA88F3B8F1090F03F162
:1056A00030088ABF73445FFA88F3DBB2824201F1AB
:1056B00001010CF8013BE7D217EE908A65E5073748
:1056C00027F00707F7E80223CDE90E2300220D9B00
:1056D00011461846DDE90E2313433AD10C9A22F005
:1056E00010030C93530534D5002616AB0A930C9A7D
:1056F0000023CDE90552099A019604920D9A03926E
:105700004CE53A4652F8043B0E9283EAE372A2EB70
:10571000E3724FEAD37E002B56D10C9921F010038F
:105720004F050C9350D516AB0A934A460C9B01903B
:10573000CDE90553099B04930D9BCDE902E30A9B38
:105740000093434651465846FEF73CFE0E9F814665
:10575000D6E50C9BCDE9129513F0200F14BF37222C
:10576000572216AB08EE108A109714940026DDE934
:105770000E451F46CDF838B08046894693460A93B9
:1057800003E0202E17D004460D4642464B462046E5
:10579000294602F085FFD2B2092A02F1300388BF00
:1057A00002EB0B034D45DBB208BF444506F1010691
:1057B00007F8013BE5D218EE108ADDE91295109F3B
:1057C000149CDDF838B092E70C9B07EE908A13F03A
:1057D000200F16AB14BF4FF0370C4FF0570C1F467D
:1057E0000D990A9302E0202815D03246B2FBF1F65B
:1057F00001FB16285FFA88F3B8F1090F03F13008AE
:105800008ABF63445FFA88F3DBB28A4200F1010089
:1058100007F8013BE7D217EE908A86E702230D9343
:10582000E1E53B4653F8042B0E93AAB90C9921F0FD
:1058300010034F050C930FD516AB0A9300230C9A57
:105840000190CDE90552099A029304920D9A0392B0
:105850000A9A00924A4674E70C9B0D9913F0200FA8
:1058600016AB14BF4FF0370C4FF0570C1F460A937E
:1058700002E02028E2D07246B2FBF1FE01FB1E26B8
:10588000F3B2092E03F130068ABF6344F3B2DBB2F0
:105890008A4200F1010007F8013BEAD2CEE783EA31
:1058A000E372A2EBE372BFE50C90C5E44D462FE630
:1058B0000C9300287FF4D2ACE8E400BF30B5054675
:1058C0000C4685B0009302A9134604484FF0FF32FE
:1058D000CDE90254FFF7B0FA05B030BDA545001080
:1058E00010B5094B84B01C684CB1034600914FF0D1
:1058F000FF3203A90548A047012004B010BD00F005
:105900007BF9204604B010BD1C2100209D450010ED
:1059100000BEFDE708B5FFF7FBFF00BF38B5FEF797
:1059200057FA084D084B9D420BD2013B5B1B23F0FD
:10593000030304332C461D4454F8043B9847AC42FF
:10594000FAD138BDA0870010AC8700100368084664
:1059500011461847437D2DE9F04706460F4691460C
:10596000002B3BD0002A23DD00242046DFF878807E
:105970004D1EFCB12B7815F8012FA3F10D03B3FADE
:1059800083F30A2A4FEA531319D00134A145F0DCFE
:10599000814504DDA9EB00013368384498474F4442
:1059A00017F8013CA3F10D03B3FA83F35B093375D8
:1059B000BDE8F08715F8012F337D0A2AE5D1002BC9
:1059C000E3D1A04203DA211A3368384498474046AD
:1059D00002213368013498472046D7E7036811460F
:1059E0003846BDE8F0471847488A00100B682DE993
:1059F000F041802B0C46064605D05A1C23442260F9
:105A00001E71BDE8F0810F4B1D68A5B10E4F01F16D
:105A1000040801E02D6975B12B68002BFAD03B68B2
:105A20000BB1AB42F6D1284641462268FFF792FF00
:105A30002D69002DF0D100230122234422601E7124
:105A4000BDE8F081101D0020181D00202DE9F04751
:105A500082B00D4692461E460746FBF729FE0022FD
:105A6000324B10EB030841EB0209B8F1000F79F15A
:105A70000003BCBF4FF0FF386FF0004942464B4671
:105A80002B4802F045FE6B1C804603D1384602F0DD
:105A9000CDFD0546274B284A1C68284B002E14BF15
:105AA00016461E46FCB1DFF89890BAF1000F28D0D8
:105AB0004FF00A0A01E02469ACB12368002BFAD048
:105AC000D9F800300BB1A342F5D120462A46394619
:105AD000B047204601220DF107018DF807A0B0471D
